{
  "contractName": "DreamMessageBoard",
  "abi": [
    {
      "inputs": [],
      "payable": false,
      "stateMutability": "nonpayable",
      "type": "constructor"
    },
    {
      "anonymous": false,
      "inputs": [
        {
          "indexed": false,
          "internalType": "string",
          "name": "newMessage",
          "type": "string"
        },
        {
          "indexed": false,
          "internalType": "address",
          "name": "updatedBy",
          "type": "address"
        },
        {
          "indexed": false,
          "internalType": "uint256",
          "name": "timestamp",
          "type": "uint256"
        }
      ],
      "name": "MessageUpdated",
      "type": "event"
    },
    {
      "constant": false,
      "inputs": [
        {
          "internalType": "string",
          "name": "_message",
          "type": "string"
        }
      ],
      "name": "setMessage",
      "outputs": [],
      "payable": false,
      "stateMutability": "nonpayable",
      "type": "function"
    },
    {
      "constant": true,
      "inputs": [],
      "name": "getMessage",
      "outputs": [
        {
          "internalType": "string",
          "name": "",
          "type": "string"
        }
      ],
      "payable": false,
      "stateMutability": "view",
      "type": "function"
    },
    {
      "constant": true,
      "inputs": [],
      "name": "getUpdateCount",
      "outputs": [
        {
          "internalType": "uint256",
          "name": "",
          "type": "uint256"
        }
      ],
      "payable": false,
      "stateMutability": "view",
      "type": "function"
    },
    {
      "constant": true,
      "inputs": [],
      "name": "getContractInfo",
      "outputs": [
        {
          "internalType": "address",
          "name": "",
          "type": "address"
        },
        {
          "internalType": "uint256",
          "name": "",
          "type": "uint256"
        },
        {
          "internalType": "uint256",
          "name": "",
          "type": "uint256"
        }
      ],
      "payable": false,
      "stateMutability": "view",
      "type": "function"
    },
    {
      "constant": true,
      "inputs": [],
      "name": "getOwner",
      "outputs": [
        {
          "internalType": "address",
          "name": "",
          "type": "address"
        }
      ],
      "payable": false,
      "stateMutability": "view",
      "type": "function"
    }
  ],
  "bytecode": "0x608060405234801561001057600080fd5b5033600260006101000a81548173ffffffffffffffffffffffffffffffffffffffff021916908373ffffffffffffffffffffffffffffffffffffffff1602179055506040518060400160405280601f81526020017f57656c636f6d6520746f20447265616d204d65737361676520426f61726421008152506000908051906020019061009d9291906100b2565b50600060018190555042600381905550610157565b828054600181600116156101000203166002900490600052602060002090601f016020900481019282601f106100f357805160ff1916838001178555610121565b82800160010185558215610121579182015b82811115610120578251825591602001919060010190610105565b5b50905061012e9190610132565b5090565b61015491905b80821115610150576000816000905550600101610138565b5090565b90565b6105c5806101666000396000f3fe608060405234801561001057600080fd5b50600436106100575760003560e01c8063368b87721461005c5780637cc1f86714610117578063893d20e81461016f578063c52ed534146101b9578063ce6d41de146101d7575b600080fd5b6101156004803603602081101561007257600080fd5b810190808035906020019064010000000081111561008f57600080fd5b8201836020820111156100a157600080fd5b803590602001918460018302840111640100000000831117156100c357600080fd5b91908080601f016020809104026020016040519081016040528093929190818152602001838380828437600081840152601f19601f82011690508083019250505050505050919291929050505061025a565b005b61011f6103dc565b604051808473ffffffffffffffffffffffffffffffffffffffff1673ffffffffffffffffffffffffffffffffffffffff168152602001838152602001828152602001935050505060405180910390f35b610177610415565b604051808273ffffffffffffffffffffffffffffffffffffffff1673ffffffffffffffffffffffffffffffffffffffff16815260200191505060405180910390f35b6101c161043f565b6040518082815260200191505060405180910390f35b6101df610449565b6040518080602001828103825283818151815260200191508051906020019080838360005b8381101561021f578082015181840152602081019050610204565b50505050905090810190601f16801561024c5780820380516001836020036101000a031916815260200191505b509250505060405180910390f35b60008151116102d1576040517f08c379a00000000000000000000000000000000000000000000000000000000081526004018080602001828103825260178152602001807f4d6573736167652063616e6e6f7420626520656d70747900000000000000000081525060200191505060405180910390fd5b80600090805190602001906102e79291906104eb565b50600160008154809291906001019190505550426003819055507fddbee71def502054f1dcb5e47f357e97a8f8f38cf0140e74d1724adad843aca881334260405180806020018473ffffffffffffffffffffffffffffffffffffffff1673ffffffffffffffffffffffffffffffffffffffff168152602001838152602001828103825285818151815260200191508051906020019080838360005b8381101561039d578082015181840152602081019050610382565b50505050905090810190601f1680156103ca5780820380516001836020036101000a031916815260200191505b5094505050505060405180910390a150565b6000806000600260009054906101000a900473ffffffffffffffffffffffffffffffffffffffff16600154600354925092509250909192565b6000600260009054906101000a900473ffffffffffffffffffffffffffffffffffffffff16905090565b6000600154905090565b606060008054600181600116156101000203166002900480601f0160208091040260200160405190810160405280929190818152602001828054600181600116156101000203166002900480156104e15780601f106104b6576101008083540402835291602001916104e1565b820191906000526020600020905b8154815290600101906020018083116104c457829003601f168201915b5050505050905090565b828054600181600116156101000203166002900490600052602060002090601f016020900481019282601f1061052c57805160ff191683800117855561055a565b8280016001018555821561055a579182015b8281111561055957825182559160200191906001019061053e565b5b509050610567919061056b565b5090565b61058d91905b80821115610589576000816000905550600101610571565b5090565b9056fea265627a7a723158205aa749d186452b29297e719760f519a59529a5cc5e7450e00229a2fb85dac0f064736f6c63430005100032",
  "source": "// SPDX-License-Identifier: MIT\r\npragma solidity ^0.5.16;\r\n\r\ncontract DreamMessageBoard {\r\n    string private message;\r\n    uint256 private updateCount;\r\n    address private owner;\r\n    uint256 private lastUpdate;\r\n    \r\n    event MessageUpdated(string newMessage, address updatedBy, uint256 timestamp);\r\n    \r\n    constructor() public {\r\n        owner = msg.sender;\r\n        message = \"Welcome to Dream Message Board!\";\r\n        updateCount = 0;\r\n        lastUpdate = now;\r\n    }\r\n    \r\n    function setMessage(string memory _message) public {\r\n        require(bytes(_message).length > 0, \"Message cannot be empty\");\r\n        message = _message;\r\n        updateCount++;\r\n        lastUpdate = now;\r\n        emit MessageUpdated(_message, msg.sender, now);\r\n    }\r\n    \r\n    function getMessage() public view returns (string memory) {\r\n        return message;\r\n    }\r\n    \r\n    function getUpdateCount() public view returns (uint256) {\r\n        return updateCount;\r\n    }\r\n    \r\n    function getContractInfo() public view returns (address, uint256, uint256) {\r\n        return (owner, updateCount, lastUpdate);\r\n    }\r\n    \r\n    function getOwner() public view returns (address) {\r\n        return owner;\r\n    }\r\n}",
  "sourcePath": "C:\\Users\\Dell\\Desktop\\dream-message-board-assignment\\contracts\\DreamMessageBoard.sol",
  "compiler": {
    "name": "solc",
    "version": "0.5.16+commit.9c3226ce.Emscripten.clang"
  },
  "schemaVersion": "3.4.16",
  "updatedAt": "2025-11-22T13:32:24.530Z",
  "devdoc": {
    "methods": {}
  },
  "userdoc": {
    "methods": {}
  }
}